:03000000020006F5
:20005F0075083F750906750A5B750B4F750C66750D6D750E7D750F0775107F75116F02003C
:01007F00037D
:030003000201CB2C
:20008000758910758BFF758DA5D28E308FFDC28EC28F22758901758AFF758CA5D28C308D0F
:2000A000FDC28CC28D22E582FFF5143395E0F515E51520E73BB280E4F512F513851AA0853E
:2000C0001BB0120080E5142408F987900512E4B512020513C3742A951274808513F063F0DB
:2000E0008095F050D7151474FFB51402151580C022E582FFF5163395E0F517E51720E73584
:20010000B280E4F518F519120093E5162408F987900518E4B518020519C3742A95187480E2
:200120008519F063F08095F050DD151674FFB51602151780C622A282B3E433FFA283E43384
:200140005207A284E4335207A285E433FE5F600C75A00E75B01F7582071200F1A283B3E485
:2001600033FFA282E433FEEF5206A284E4335206A285E433FF5E600C75A00D75B02F7582C4
:20018000091200F1A2828283E433F51CA284B3E433AE1C5206A285E433FF5E600C75A00BC9
:2001A00075B04F7582091200F1A28282838284E433F51CA285B3E433FFAE1C5E600C75A0D8
:2001C0000775B08F7582090200F122D2A8D2AFD28875A00E751A0E75B01F751B1F75820749
:2001E0001200A675A00E751A0E75B01F751B1F7582021200A675A00D751A0D75B02F751B41
:200200002F7582091200A675A04B751A4B75B00F751B0F7582021200A675A00B751A0B750A
:20022000B04F751B4F7582091200A675A087751A8775B00F751B0F7582021200A675A007D6
:20024000751A0775B08F751B8F7582091200A675A01E751A1E75B00F751B0F7582021200BF
:04026000A60201D120
:06003500E478FFF6D8FD9F
:200013007900E94400601B7A00900268780175A000E493F2A308B8000205A0D9F4DAF27529
:02003300A0FF2C
:20003B007800E84400600A790175A000E4F309D8FC7800E84400600C7900900001E4F0A3C3
:04005B00D8FCD9FAFA
:0D00060075811C120264E582600302000394
:04026400758200227D
:00000001FF
